{
  "_format": "hh-sol-artifact-1",
  "contractName": "Miros",
  "sourceName": "contracts/Miros.sol",
  "abi": [
    {
      "inputs": [
        {
          "internalType": "address",
          "name": "_addr",
          "type": "address"
        },
        {
          "internalType": "string",
          "name": "_passwrd",
          "type": "string"
        }
      ],
      "name": "login",
      "outputs": [
        {
          "internalType": "bool",
          "name": "",
          "type": "bool"
        }
      ],
      "stateMutability": "nonpayable",
      "type": "function"
    },
    {
      "inputs": [
        {
          "internalType": "address",
          "name": "_addr",
          "type": "address"
        }
      ],
      "name": "logout",
      "outputs": [],
      "stateMutability": "nonpayable",
      "type": "function"
    },
    {
      "inputs": [
        {
          "internalType": "string",
          "name": "_username",
          "type": "string"
        },
        {
          "internalType": "string",
          "name": "_email",
          "type": "string"
        },
        {
          "internalType": "string",
          "name": "_passwrd",
          "type": "string"
        },
        {
          "internalType": "address",
          "name": "_addr",
          "type": "address"
        }
      ],
      "name": "signUp",
      "outputs": [
        {
          "internalType": "bool",
          "name": "",
          "type": "bool"
        }
      ],
      "stateMutability": "nonpayable",
      "type": "function"
    },
    {
      "inputs": [
        {
          "internalType": "address",
          "name": "",
          "type": "address"
        }
      ],
      "name": "users",
      "outputs": [
        {
          "internalType": "address",
          "name": "addr",
          "type": "address"
        },
        {
          "internalType": "string",
          "name": "username",
          "type": "string"
        },
        {
          "internalType": "string",
          "name": "email",
          "type": "string"
        },
        {
          "internalType": "bool",
          "name": "islogin",
          "type": "bool"
        }
      ],
      "stateMutability": "view",
      "type": "function"
    }
  ],
  "bytecode": "0x608060405234801561001057600080fd5b50610cc6806100206000396000f3fe608060405234801561001057600080fd5b506004361061004c5760003560e01c80632f19d50b146100515780636342f59114610081578063a87430ba146100b1578063cc51f9b9146100e4575b600080fd5b61006b600480360381019061006691906107f3565b610100565b6040516100789190610a7a565b60405180910390f35b61009b60048036038101906100969190610847565b610202565b6040516100a89190610a7a565b60405180910390f35b6100cb60048036038101906100c691906107ca565b610484565b6040516100db9493929190610a27565b60405180910390f35b6100fe60048036038101906100f991906107ca565b6105f1565b005b60008160405160200161011391906109f9565b60405160208183030381529060405280519060200120600160008573ffffffffffffffffffffffffffffffffffffffff1673ffffffffffffffffffffffffffffffffffffffff1681526020019081526020016000206040516020016101789190610a10565b6040516020818303038152906040528051906020012014156101f75760016000808573ffffffffffffffffffffffffffffffffffffffff1673ffffffffffffffffffffffffffffffffffffffff16815260200190815260200160002060030160006101000a81548160ff021916908315150217905550600190506101fc565b600090505b92915050565b60003373ffffffffffffffffffffffffffffffffffffffff166000808473ffffffffffffffffffffffffffffffffffffffff1673ffffffffffffffffffffffffffffffffffffffff16815260200190815260200160002060000160009054906101000a900473ffffffffffffffffffffffffffffffffffffffff1673ffffffffffffffffffffffffffffffffffffffff16141561029e57600080fd5b816000808473ffffffffffffffffffffffffffffffffffffffff1673ffffffffffffffffffffffffffffffffffffffff16815260200190815260200160002060000160006101000a81548173ffffffffffffffffffffffffffffffffffffffff021916908373ffffffffffffffffffffffffffffffffffffffff160217905550846000808473ffffffffffffffffffffffffffffffffffffffff1673ffffffffffffffffffffffffffffffffffffffff16815260200190815260200160002060010190805190602001906103739291906106aa565b50836000808473ffffffffffffffffffffffffffffffffffffffff1673ffffffffffffffffffffffffffffffffffffffff16815260200190815260200160002060020190805190602001906103c99291906106aa565b5082600160008473ffffffffffffffffffffffffffffffffffffffff1673ffffffffffffffffffffffffffffffffffffffff168152602001908152602001600020908051906020019061041d9291906106aa565b5060008060008473ffffffffffffffffffffffffffffffffffffffff1673ffffffffffffffffffffffffffffffffffffffff16815260200190815260200160002060030160006101000a81548160ff02191690831515021790555060019050949350505050565b60006020528060005260406000206000915090508060000160009054906101000a900473ffffffffffffffffffffffffffffffffffffffff16908060010180546104cd90610ba7565b80601f01602080910402602001604051908101604052809291908181526020018280546104f990610ba7565b80156105465780601f1061051b57610100808354040283529160200191610546565b820191906000526020600020905b81548152906001019060200180831161052957829003601f168201915b50505050509080600201805461055b90610ba7565b80601f016020809104026020016040519081016040528092919081815260200182805461058790610ba7565b80156105d45780601f106105a9576101008083540402835291602001916105d4565b820191906000526020600020905b8154815290600101906020018083116105b757829003601f168201915b5050505050908060030160009054906101000a900460ff16905084565b600115156000808373ffffffffffffffffffffffffffffffffffffffff1673ffffffffffffffffffffffffffffffffffffffff16815260200190815260200160002060030160009054906101000a900460ff16151514156106a75760008060008373ffffffffffffffffffffffffffffffffffffffff1673ffffffffffffffffffffffffffffffffffffffff16815260200190815260200160002060030160006101000a81548160ff0219169083151502179055505b50565b8280546106b690610ba7565b90600052602060002090601f0160209004810192826106d8576000855561071f565b82601f106106f157805160ff191683800117855561071f565b8280016001018555821561071f579182015b8281111561071e578251825591602001919060010190610703565b5b50905061072c9190610730565b5090565b5b80821115610749576000816000905550600101610731565b5090565b600061076061075b84610aba565b610a95565b90508281526020810184848401111561077857600080fd5b610783848285610b65565b509392505050565b60008135905061079a81610c79565b92915050565b600082601f8301126107b157600080fd5b81356107c184826020860161074d565b91505092915050565b6000602082840312156107dc57600080fd5b60006107ea8482850161078b565b91505092915050565b6000806040838503121561080657600080fd5b60006108148582860161078b565b925050602083013567ffffffffffffffff81111561083157600080fd5b61083d858286016107a0565b9150509250929050565b6000806000806080858703121561085d57600080fd5b600085013567ffffffffffffffff81111561087757600080fd5b610883878288016107a0565b945050602085013567ffffffffffffffff8111156108a057600080fd5b6108ac878288016107a0565b935050604085013567ffffffffffffffff8111156108c957600080fd5b6108d5878288016107a0565b92505060606108e68782880161078b565b91505092959194509250565b6108fb81610b27565b82525050565b61090a81610b39565b82525050565b600061091b82610b00565b6109258185610b0b565b9350610935818560208601610b74565b61093e81610c68565b840191505092915050565b600061095482610b00565b61095e8185610b1c565b935061096e818560208601610b74565b80840191505092915050565b6000815461098781610ba7565b6109918186610b1c565b945060018216600081146109ac57600181146109bd576109f0565b60ff198316865281860193506109f0565b6109c685610aeb565b60005b838110156109e8578154818901526001820191506020810190506109c9565b838801955050505b50505092915050565b6000610a058284610949565b915081905092915050565b6000610a1c828461097a565b915081905092915050565b6000608082019050610a3c60008301876108f2565b8181036020830152610a4e8186610910565b90508181036040830152610a628185610910565b9050610a716060830184610901565b95945050505050565b6000602082019050610a8f6000830184610901565b92915050565b6000610a9f610ab0565b9050610aab8282610bd9565b919050565b6000604051905090565b600067ffffffffffffffff821115610ad557610ad4610c39565b5b610ade82610c68565b9050602081019050919050565b60008190508160005260206000209050919050565b600081519050919050565b600082825260208201905092915050565b600081905092915050565b6000610b3282610b45565b9050919050565b60008115159050919050565b600073ffffffffffffffffffffffffffffffffffffffff82169050919050565b82818337600083830152505050565b60005b83811015610b92578082015181840152602081019050610b77565b83811115610ba1576000848401525b50505050565b60006002820490506001821680610bbf57607f821691505b60208210811415610bd357610bd2610c0a565b5b50919050565b610be282610c68565b810181811067ffffffffffffffff82111715610c0157610c00610c39565b5b80604052505050565b7f4e487b7100000000000000000000000000000000000000000000000000000000600052602260045260246000fd5b7f4e487b7100000000000000000000000000000000000000000000000000000000600052604160045260246000fd5b6000601f19601f8301169050919050565b610c8281610b27565b8114610c8d57600080fd5b5056fea2646970667358221220458f38d6105f0f6a317bbf3f994c836daf73b518fb183216286847ca426ce48e64736f6c63430008040033",
  "linkReferences": {},
  "deployedLinkReferences": {}
}